:100000000C942A000C943F000C943F000C943F0089
:100010000C943F000C943F000C943F000C943F0064
:100020000C943F000C943F000C943F000C943F0054
:100030000C943F000C943F000C943F000C943F0044
:100040000C943F000C943F000C943F000C943F0034
:100050000C943F0011241FBECFE5D8E0DEBFCDBF1A
:1000600010E0A0E6B0E0ECE4F7E002C005900D92ED
:10007000A038B107D9F70E94A9010C94A4030C94ED
:100080000000CF93C82F60E081E00E94C1026C2F76
:10009000661F6627661F86E00E94C102C6FB6627B0
:1000A00060F985E00E94C102C5FB662760F984E023
:1000B0000E94C102C4FB662760F983E00E94C1026E
:1000C00061E082E00E94C1028FEC97E00197F1F7B6
:1000D00000C0000060E082E00E94C1028FEC97E067
:1000E0000197F1F700C00000C3FB662760F986E0C6
:1000F0000E94C102C2FB662760F985E00E94C1022E
:10010000C1FB662760F984E00E94C1026C2F617018
:1001100083E00E94C10261E082E00E94C1028FEC94
:1001200097E00197F1F700C0000060E082E00E94D4
:10013000C1028FEC97E00197F1F700C00000CF916A
:100140000895CF93C82F61E081E00E94C1026C2F17
:10015000661F6627661F86E00E94C102C6FB6627EF
:1001600060F985E00E94C102C5FB662760F984E062
:100170000E94C102C4FB662760F983E00E94C102AD
:1001800061E082E00E94C1028FEC97E00197F1F7F5
:1001900000C0000060E082E00E94C1028FEC97E0A6
:1001A0000197F1F700C00000C3FB662760F986E005
:1001B0000E94C102C2FB662760F985E00E94C1026D
:1001C000C1FB662760F984E00E94C1026C2F617058
:1001D00083E00E94C10261E082E00E94C1028FECD4
:1001E00097E00197F1F700C0000060E082E00E9414
:1001F000C1028FEC97E00197F1F700C00000CF91AA
:1002000008952FE788E391E0215080409040E1F786
:1002100000C0000082E00E94410088E20E9441008C
:100220008CE00E94410081E00E9441008FEC97E049
:100230000197F1F700C0000086E00C9441000C9497
:10024000A1004F925F926F927F92AF92BF92CF9236
:10025000DF92EF92FF921F93CF93DF93CDB7DEB77C
:100260002A970FB6F894DEBF0FBECDBF6B017C019D
:100270006115710581059105B1F480E32A960FB6E9
:10028000F894DEBF0FBECDBFDF91CF911F91FF90DD
:10029000EF90DF90CF90BF90AF907F906F905F9086
:1002A0004F900C94A10097FF0BC0F094E094D09471
:1002B000C094C11CD11CE11CF11C8DE20E94A10064
:1002C00010E09AE0492E512C612C712CAA24A394A1
:1002D000B12CAC0EBD1EA10EB11CC701B601A3010D
:1002E00092010E947603605DF501608369017A01E5
:1002F0001F5FC114D104E104F10441F7112341F05F
:10030000FE01E10FF11D80810E94A1001150F6CF86
:100310002A960FB6F894DEBF0FBECDBFDF91CF9106
:100320001F91FF90EF90DF90CF90BF90AF907F90A4
:100330006F905F904F90089581E00E9441008FEC94
:1003400097E00197F1F700C00000089580E00C9459
:10035000F5010E9404020E94010166E080E00E9413
:10036000D1010AE010E00E94A601B8010E944003FA
:10037000EC0180E090E00E9421018EE20E941F01CA
:10038000BE0180E090E00E9421012FEF80E792E023
:10039000215080409040E1F700C000000E949C0185
:1003A000E2CF8295880F880F807C97B18F63892375
:1003B00087B93D9886B1887F86B986B16770682B0A
:1003C00066B9379A089597B1907E97B997B1892BFE
:1003D00087B9369A3699FECF369824B185B190E028
:1003E000982F8827820F911D08950E94E3019C0198
:1003F000A8E8B3E10E9495032FEF33E040E050E01E
:100400000E945403C9010895E0E6F0E040E081E075
:1004100090E05191342F369536953695242F2770DC
:10042000513099F120F0523009F461C0A5C032304A
:10043000C1F0333001F1313051F05AB3BC0102C088
:10044000660F771F2A95E2F79B01252B2DC057B326
:10045000BC0102C0660F771F2A95E2F79B01252B8E
:100460002EC054B3BC0102C0660F771F2A95E2F775
:100470009B01252B2FC051B3BC0102C0660F771F13
:100480002A95E2F79B01252B30C03230D1F0333072
:1004900019F1313059F03AB3BC0101C0660F2A9509
:1004A000EAF7262F209523232ABB66C037B3BC0169
:1004B00001C0660F2A95EAF7262F2095232327BB34
:1004C0005BC034B3BC0101C0660F2A95EAF7262F42
:1004D0002095232324BB50C031B3BC0101C0660F5B
:1004E0002A95EAF7262F2095232321BB45C03230D9
:1004F00021F1333091F1313081F05AB3BC0102C0A7
:10050000660F771F2A95E2F79B01362F309535232A
:100510003ABB3BB3232B2BBB2FC057B3BC0102C04C
:10052000660F771F2A95E2F79B01362F309535230A
:1005300037BB38B3232B28BB1FC054B3BC0102C048
:10054000660F771F2A95E2F79B01362F30953523EA
:1005500034BB35B3232B25BB0FC051B3BC0102C044
:10056000660F771F2A95E2F79B01362F30953523CA
:1005700031BB32B3232B22BB4F5F403209F049CF4E
:100580000895662319F06130E9F178C0883068F485
:100590004BB321E030E0B90102C0660F771F8A95A6
:1005A000E2F7CB01809584233AC038EF380F38301A
:1005B00050F428B381E090E001C0880F3A95EAF743
:1005C000809582233AC030EF380F383050F425B38D
:1005D00081E090E001C0880F3A95EAF78095822388
:1005E0003AC08851883008F049C042B321E030E079
:1005F000B90102C0660F771F8A95E2F7CB0180959B
:1006000084233AC0883068F44BB321E030E0B9016C
:1006100002C0660F771F8A95E2F7CB01842B8BBB54
:100620001BC028EF280F283050F438B381E090E049
:1006300001C0880F2A95EAF7832B88BB0DC020EFF5
:10064000280F283058F435B381E090E001C0880FBE
:100650002A95EAF7832B85BB80E00895885188307E
:1006600068F442B321E030E0B90102C0660F771FA1
:100670008A95E2F7CB01842B82BBEECF81E008950F
:10068000AA1BBB1B51E107C0AA1FBB1FA617B707B8
:1006900010F0A61BB70B881F991F5A95A9F78095D4
:1006A0009095BC01CD010895A1E21A2EAA1BBB1B97
:1006B000FD010DC0AA1FBB1FEE1FFF1FA217B3072E
:1006C000E407F50720F0A21BB30BE40BF50B661F44
:1006D000771F881F991F1A9469F760957095809508
:1006E00090959B01AC01BD01CF010895052E97FBAC
:1006F0001EF400940E948D0357FD07D00E945403FE
:1007000007FC03D04EF40C948D0350954095309522
:1007100021953F4F4F4F5F4F08959095809570956D
:1007200061957F4F8F4F9F4F0895A29FB001B39F58
:10073000C001A39F700D811D1124911DB29F700DEA
:0C074000811D1124911D0895F894FFCF35
:10074C00010000000000000000000000000000009C
:10075C000000000000000000000202020202000083
:00000001FF
